:1000000052C1000081C100007FC100007DC100001D
:100010007BC1000079C1000077C1000075C10000FC
:1000200073C1000071C100006FC100006DC100000C
:100030006BC1000069C1000067C1000065C100001C
:1000400063C100000C94281C5FC100005DC100006A
:100050005BC1000059C1000057C100000C9482210F
:1000600053C100000C94F6160C94CD164DC100003F
:100070004BC1000049C1000047C1000045C100005C
:100080000C94FB1B41C100003FC100003DC10000BA
:100090003BC1000039C1000037C100000C94910B36
:1000A00033C1000031C100000C94CE1B2DC10000F3
:1000B0002BC1000029C1000027C100000C94A11B26
:1000C00023C1000021C100001FC100001DC10000AC
:1000D0001BC1000019C1000017C1000015C10000BC
:1000E00013C10000A001A301920196019C01DA0155
:1000F000A701AB01B101B501B901BF01C301C7013E
:10010000DA01CD01D101D501EC02D30435036C0332
:10011000E6037C042A05F6042D04BA17BE17C2179D
:10012000C617CA17CE17D2170E1915191C1923197D
:100130002A19421931194219381979207E20832051
:100140008D2097201021A120A920B120BB20C520FF
:10015000CF20DE20E8201021F220FC200621000024
:100160002100240027002A002D0030003300010167
:100170000000040107010A010000220025002800F8
:100180002B002E003100340002010000050108019F
:100190000B01000020002300260029002C002F0066
:1001A00032000001000003010601090105050505F3
:1001B000070508080808020202020A0A08080404DF
:1001C000040401010101010101010303030303030D
:1001D0000303040707070C0C0C0C0C0C0C0C02029C
:1001E000020206060606060606060B0B0B0B0B0B99
:1001F0000B0B010210202008081020401020408026
:1002000002010201080402010102040810204080DA
:100210008040201008040201800402018040201068
:1002200008040201080402010102040810204080B1
:10023000010204081020408000000A0B02090C0D86
:100240000E08070304010000000000000000000089
:10025000000000000000000000000000000000009E
:10026000000000001211100000000000000000005B
:10027000000000000000000000000000000020005E
:10028000526F636B732100200020004D6F6269661E
:100290006C69676874006E2F61004F4B004F4B0014
:1002A0004F4B00009C2611241FBECFEFD1E2DEBFD2
:1002B000CDBF00E00CBF13E0A0E0B2E0E8EFF0E655
:1002C00000E00BBF02C007900D92A838B107D9F724
:1002D00026E1A8E8B3E001C01D92A43EB207E1F711
:1002E00011E0C3E5D1E000E006C021970109802FAD
:1002F000FE010E94732BC235D10780E00807A9F7E1
:100300000E94CC210C947A307BCE90E0FC01319796
:10031000E231F10508F04EC08827EE58FF4F8F4FAD
:100320000C94732B809180008F7703C080918000A4
:100330008F7D80938000089580918000877FF9CF22
:1003400084B58F7702C084B58F7D84BD0895809178
:10035000B0008F7703C08091B0008F7D8093B00094
:100360000895809190008F7707C0809190008F7DD5
:1003700003C080919000877F8093900008958091C2
:10038000A0008F7707C08091A0008F7D03C080916F
:10039000A000877F8093A0000895809120018F772F
:1003A00007C0809120018F7D03C080912001877F4D
:1003B000809320010895CF92DF92EF92FF920F93E6
:1003C0001F93CF93DF936C017B018A01C0E0D0E0E3
:1003D000C017D10760F4B6016C0F7D1F41E050E0FB
:1003E000C7018C0F9D1F0E94D2292196F1CFC80111
:1003F000DF91CF911F910F91FF90EF90DF90CF9001
:100400000895CF93DF93282F30E0F901E85CFD4F8A
:100410008491F901EE50FE4FD491F901E455FE4F5D
:10042000C491CC2389F0811170DFEC2FF0E0EE0F46
:10043000FF1FEE56FE4FA591B491EC91ED2381E0A4
:1004400090E021F480E002C080E090E0DF91CF9165
:1004500008951F93CF93DF93282F30E0F901E85CD4
:10046000FD4F8491F901EE50FE4FD491F901E4550E
:10047000FE4FC491CC23B9F0162F811146DFEC2F2B
:10048000F0E0EE0FFF1FE858FE4FA591B4919FB723
:10049000F894111104C08C91D095D82302C0EC912E
:1004A000DE2BDC939FBFDF91CF911F910895CF93F7
:1004B000DF9390E0FC01EE50FE4F2491FC01E455E7
:1004C000FE4F8491882361F190E0880F991FFC0111
:1004D000E25AFE4FC591D491FC01E858FE4FA59118
:1004E000B491611109C09FB7F89488812095822347
:1004F0008883EC912E230BC0623061F49FB7F8948F
:100500008881322F309583238883EC912E2B2C9376
:100510009FBF06C08FB7F894E8812E2B28838FBF2A
:10052000DF91CF9108952F923F924F925F926F92F9
:100530007F928F929F92AF92BF92CF92DF92EF9273
:10054000FF920F931F93CF93DF93CDB7DEB7C751C1
:10055000D4400FB6F894DEBF0FBECDBF1A82198209
:10056000FE0133962FEF33E0DF01A9011D924150C8
:100570005040E1F7C25FDB4F19821882CE50D44061
:1005800040E054E0BE016F5F7F4F0E94B91FAE0193
:10059000425F5B4F68E673E0CE0101960E947528CA
:1005A000DC012C91222309F41AC516E0712E08E013
:1005B000402E0E943228FC013197AE01425F5B4F12
:1005C000E930F10508F00EC468E673E08827EC57BF
:1005D000FF4F8F4F0C94732B80E090E00E947528A2
:1005E0008C01AE01425F5B4F6AE673E080E090E011
:1005F0000E9475287C01C8010E943228D090DC033B
:10060000B4E4DB1609F4F4C38C01112709561C4F1E
:10061000F80120812111ECC3A701682FCE018E5F64
:100620009B4F0E94001E8CE08D9DD0011124AA5585
:10063000BE4EFE01EE5FFB4F982F01900D929A95F2
:10064000E1F79091DC03899FF0011124EA55FE4EF9
:100650002DE530E1338722873187208781E0D8017B
:100660008C939F5F9093DC03C3C380E090E00E9473
:1006700075288C01AE01425F5B4F6AE673E080E053
:1006800090E00E947528C8010E9432287C01D09019
:100690009603B8E2DB1609F4ABC38C0111270956A7
:1006A0001C4FF80180818111A3C361E08E2DFFDE14
:1006B00060E070E08E2D0E945020ED2DF0E0EE0FF6
:1006C000FF1FEA52FB4EE082118283E0D8018C9337
:1006D000D394D09296038CC380E090E00E9475285A
:1006E0008C01AE01425F5B4F68E673E080E090E012
:1006F0000E9475287C01AE01425F5B4F68E673E0A3
:1007000080E090E00E9475286C01AE01425F5B4F73
:1007100068E673E080E090E00E9475284C01AE012D
:10072000425F5B4F68E673E080E090E00E947528CE
:100730005C01AE01425F5B4F6AE673E080E090E0EF
:100740000E947528C4010E943228682EC5010E94AB
:1007500032281C01C6010E9432286C01C7010E9488
:1007600032284C01C8010E9432287C015090950328
:10077000B4E05B1609F43CC39927FC01E956FC4F31
:10078000CE5EDB4FF983E883C251D4408081811172
:100790002FC3C60199279C0129563C4FCC5EDB4FE5
:1007A00039832883C451D440D9018C91811120C34D
:1007B000F401FF27C05FDB4FF983E883C051D440C9
:1007C000E956FC4F8081811113C31FC380E090E084
:1007D0000E9475288C01AE01425F5B4F68E673E0B2
:1007E00080E090E00E9475287C01AE01425F5B4F83
:1007F00068E673E080E090E00E9475286C01AE012D
:10080000425F5B4F68E673E080E090E00E947528ED
:100810005C01AE01425F5B4F68E673E080E090E010
:100820000E947528AE01425F5B4F6AE673E080E08C
:1008300090E00E947528C5010E9432285C01C60123
:100840000E9432286C01C7010E9432287C01C80135
:100850000E94322800E010E049C080E090E00E9451
:1008600075284C01AE01425F5B4F68E673E080E0A3
:1008700090E00E9475287C01AE01425F5B4F68E604
:1008800073E080E090E00E9475286C01AE01425F49
:100890005B4F68E673E080E090E00E9475285C01A1
:1008A000AE01425F5B4F68E673E080E090E00E943B
:1008B00075288C01AE01425F5B4F6AE673E080E011
:1008C00090E00E947528C8010E9432288C01C50161
:1008D0000E9432285C01C6010E9432286C01C701C7
:1008E0000E9432287C01C4010E9432289501A60191
:1008F000B7010E949D137CC280E090E00E947528A1
:100900008C01AE01425F5B4F6AE673E080E090E0ED
:100910000E947528C8010E943228D0909403BAE042
:10092000DB1609F465C29C013327F901E956FC4F37
:100930007F01208121115CC2FBE1DF9E8001112437
:100940000459164FD80119961C921997F80115866B
:1009500016861786108A51961D921D921D921C9222
:10096000549712961C921E921197E4EBF0E01496A5
:10097000FC93EE93139716961C921E921597189659
:10098000FC93EE9317978C930E947621D80155968D
:100990006D937D938D939C935897F7017082D394B8
:1009A000D092940325C280E090E00E9475287C01DB
:1009B000AE01425F5B4F68E673E080E090E00E942A
:1009C00075286C01AE01425F5B4F6AE673E080E020
:1009D00090E00E9475288C01C6010E943228D82E12
:1009E000C7010E943228980140E030C080E090E0CA
:1009F0000E9475287C01AE01425F5B4F68E673E0A0
:100A000080E090E00E9475286C01AE01425F5B4F70
:100A100068E673E080E090E00E9475285C01AE011A
:100A2000425F5B4F6AE673E080E090E00E947528C9
:100A30008C01C5010E943228B82EC6010E943228BE
:100A4000D82EC7010E94322898014B2D6D2D0E948F
:100A5000EF10CEC180E090E00E9475288C01AE01BD
:100A6000425F5B4F68E673E080E090E00E9475288B
:100A70007C01AE01425F5B4F68E673E080E090E08E
:100A80000E9475286C01AE01425F5B4F6AE673E01D
:100A900080E090E00E947528C6010E943228B82E9E
:100AA000C7010E943228A82EC8010E943228982E21
:100AB00080919303823009F49BC1E82EF12C7E9C37
:100AC000C0017F9C900D11249C01205A364F690172
:100AD000D90113969C9213971496AC92149715967D
:100AE000BC928CE090E00E947B2B8C01FC01138275
:100AF00012822DE532E0318320839482A086B18674
:100B000012864386D60111969C938E9381E01296AD
:100B10008C93109292031092910310929003109272
:100B20008F0310928E0380938D0310928C0361E0EB
:100B300084E18FDC61E085E18CDC8091B9008E7FFF
:100B40008093B9008091B9008D7F8093B90088E4CB
:100B50008093B80085E48093BC00EBE3F8E0F09369
:100B60008B03E0938A032CE338E0309389032093CE
:100B70008803D80115961C92159719968C91199790
:100B8000823010F015964C92F8019285992329F045
:100B9000813019F485818460858362E370E080E0B0
:100BA00090E00E943E21D8011B966C91C8010E94E2
:100BB0000D1B68EE73E080E090E00E943E2160E350
:100BC000C8010E94711B8BE496E40197F1F760E382
:100BD000C8010E94711B8BE496E40197F1F760E372
:100BE000C8010E94711B83E592E00197F1F760E272
:100BF000C8010E94711BF8016581606240E0C80174
:100C00000E94871B84E0D80116968C9340E06CE02C
:100C1000C8010E94871B40E061E0C8010E94871B59
:100C20008BE39FE10197F1F782E0F801878340E0D1
:100C300066E0C8010E94871B40E062E0C8010E9494
:100C4000871B8BE39FE10197F1F77E9C80017F9CDE
:100C5000100D1124005A164FD8018D919C91FC0162
:100C6000438660E00E940D1BD80112968C9112976A
:100C7000882309F4B1C015966C911597669561505B
:100C80008D919C910E940120B12C6801B4E0CB0EA3
:100C9000D11C4B2D50E0F601208130E0C9010A97AC
:100CA00097FD0196959587954817590749F06CE689
:100CB00073E0D8018D919C910E94B816B394E9CF4E
:100CC0007E9C80017F9C100D1124005A164F6BE80A
:100CD00072E0F801808191810E949416B12C680124
:100CE000F4E0CF0ED11C4B2D50E0D6012C9130E01A
:100CF000C9010A9797FD0196959587954817590759
:100D000049F069E872E0F801808191810E949416AF
:100D1000B394E9CF7E9C80017F9C100D1124005A72
:100D2000164FD80115966C91159766958D919C91EB
:100D30000E940120B12C6801B4E0CB0ED11C4B2DD8
:100D400050E0F601208130E0C901069797FD019639
:100D5000959587954817590749F067E872E0D801DB
:100D60008D919C910E949416B394E9CF7E9C800152
:100D70007F9C100D1124005A164F60E872E0F801B4
:100D8000808191810E949416B12C6801F4E0CF0E0D
:100D9000D11C4B2D50E0D6012C9130E0C9010697B3
:100DA00097FD0196959587954817590749F06EE785
:100DB00072E0F801808191810E949416B394E9CF8A
:100DC0007E9CF0017F9CF00D1124E05AF64F60E00C
:100DD000808191810E940120809193038F5F809395
:100DE000930306C06AE673E080E090E00E947528F5
:100DF000AE01425F5B4F68E673E080E090E00E94E6
:100E00007528009709F0D5CBEAC0252D30E0CA5EE1
:100E1000DB4F39832883C651D44088E590E00E9497
:100E20007B2B8C01C1019927F801E05BFF4FF18218
:100E3000E082580132E5A30EB11CD501CD92DC92BF
:100E40006801B4E5CB0ED11CF601918280829C0131
:100E5000215031092830310508F0BEC04801F6E5BF
:100E60008F0E911CD4018D939C9361E08E2D1FDB1E
:100E700061E0F50180811BDB61E0D6018C9117DB1D
:100E800061E0F6018081E5DAD801A05BBF4F1196E1
:100E9000FC92EE92F80170961192AE17BF07E1F73F
:100EA000E12CF12CD4018D919C91E816F90654F5B2
:100EB00020E04FE0B701C80162D6F7FC0BC0F40197
:100EC00080819181E816F9062CF427E04BE0B70108
:100ED000C80155D620E049E0B701C80150D6F7FC5B
:100EE00009C0D4018D919C91E816F9061CF4B70154
:100EF000C801CBD641E0B701C80123D7BFEFEB1A39
:100F0000FB0AD0CFCA5EDB4FE881F981C651D440DD
:100F1000EE0FFF1FEE0FFF1FEA56FE4EDF010D938F
:100F20001D9381E082832382E12CF12C8F01339683
:100F30005F016D01D5018C91282F30E02E153F0502
:100F400079F1F6019081992391F0E81680F4B701C8
:100F50007727D8018D919C91FC01EA5AFF4F20819F
:100F60003181621773071CF4262D4AE008D640E051
:100F7000B701F80180819181E4D6F7FC0DC0D8015A
:100F80008D919C91FC01EA5AFF4F20813181E2163C
:100F9000F30614F4B70179D6BFEFEB1AFB0ACACFF8
:100FA00084E0CE5EDB4FE881F981C251D44080837A
:100FB000C05FDB4FE881F981C051D440E956FC4F56
:100FC0008083CC5EDB4FA881B981C451D4408C931F
:100FD0005394509295030CCF88E090E03FCFC95EC8
:100FE000DB4F0FB6F894DEBF0FBECDBFDF91CF91C0
:100FF0001F910F91FF90EF90DF90CF90BF90AF9037
:101000009F908F907F906F905F904F903F902F9028
:10101000089585ED8093BC008091BC0084FDFCCFD9
:1010200010928E03089540911D08262F30E0240F62
:10103000311D21323105DCF420918E032430C9F4B6
:10104000FC0180E090E0861758F430911D08219152
:10105000DC01A350B84FA30FB11D2C930196F3CF21
:1010600080911D08680F60931D0880E0089581E05D
:10107000089582E00895089508950895E0919203F7
:1010800080919103E81730F4F0E0E352F84F80814B
:1010900090E008958FEF9FEF0895909192038091D3
:1010A0009103981750F4E92FF0E0E352F84F2081B4
:1010B00030E09F5F9093920302C02FEF3FEFC90192
:1010C00008958091910390E020919203821B9109F1
:1010D0000895CF92DF92EF92FF920F931F93CF93D9
:1010E000DF937C01CB018A0120919B08222389F0A8
:1010F000EB016B01C40ED51ECC15DD0561F06991C5
:10110000D701ED91FC910190F081E02DC701199577
:10111000F3CF642F88DFC801DF91CF911F910F912A
:10112000FF90EF90DF90CF900895CF93DF931F92C1
:10113000CDB7DEB7698320919B082223D1F020919F
:101140008F03203240F021E030E0FC013383228322
:1011500080E090E014C080919003E82FF0E0E45626
:10116000F74F998190838F5F8093900380938F03D3
:1011700004C061E0CE01019656DF81E090E00F905F
:10118000DF91CF910895089580E090E008950F9346
:101190001F93CF93DF93C6EAD1E100E010E0809186
:1011A000DC0390E00817190739F0CE010E94A91D51
:1011B0000F5F1F4F2C96F3CFDF91CF911F910F91AF
:1011C00008950E94762160934608709347088093A3
:1011D0004808909349088AE090E00E944A1F8DEDEC
:1011E00093E00E949E1F0C945E1F0E9476216093E4
:1011F00046087093470880934808909349088AE00E
:1012000090E00E944A1F80E092E00E949E1F8FE1C2
:1012100092E00E949E1F84E192E00E949E1F85E65C
:1012200092E00E949E1F0C945E1F81E00E940A12B1
:101230008AE090E00E944A1F84E192E00E949E1F93
:101240000C945E1F0E94AC1E20915E0830E0821755
:10125000930734F5880F991FFC01E65BF74F019067
:10126000F081E02D158616861786108A118A128A5B
:10127000138A148A15AA16AA17AA10AE15A216A2C6
:1012800017A210A6158A168A178A108E0E94762138
:1012900060934608709347088093480890934908E4
:1012A00008958F929F92AF92BF92CF92DF92FF925A
:1012B0000F931F93CF93DF93CDB7DEB765970FB62C
:1012C000F894DEBF0FBECDBF0E94AC1E5C010E9431
:1012D000BF1E6C0186E08A9D80018B9D100D11243C
:1012E000D801A05AB64F12968C9112978823A9F173
:1012F0001A8219829E012D5F3F4F83E1F9011192FD
:101300008A95E9F7F12C8D014D01F5E08F0E911CC6
:101310005D0184E0A80EB11CF40180818F15E9F015
:101320006F2DF801808191810E940120F50180815B
:10133000482F50E0B6018F9D600D711D1124CE0124
:1013400001960E94802DBE016F5F7F4FF801808162
:1013500091810E94B816F394DFCF8091C31581115B
:1013600009C085E090E00E944A1FC6010E949E1FAE
:101370000E945E1F0E947621609346087093470882
:10138000809348089093490865960FB6F894DEBF9D
:101390000FBECDBFDF91CF911F910F91FF90DF90D6
:1013A000CF90BF90AF909F908F9008954F925F9293
:1013B0006F927F928F929F92AF92BF92CF92DF9265
:1013C000EF92FF920F931F93CF93DF930E94AC1E77
:1013D0008C010E94AC1EBC018091940390E0081720
:1013E00019070CF0F0C08BE1809FE001819FD00DC8
:1013F0001124C459D64FCD80DE800D2C000CEE0890
:10140000FF0889809A80092C000CAA08BB082F814C
:101410003885C901330FAA0BBB0B9C01AD012C19F8
:101420003D094E095F09CB01770FAA0BBB0BBC012D
:10143000CD01681979098A099B090E94582B2B81D3
:101440003C812901330F66087708A301920128190E
:1014500039094A095B090E94F929C20ED31EE41E0C
:10146000F51E0D2C000CEE08FF088D859E85AF85BE
:10147000B8898C159D05AE05BF0509F46DC0CD86F4
:10148000DE86EF86F88A8985811166C08A85803379
:1014900008F058C0F88061E08F2D09D88A85E82FC0
:1014A000F0E09F01220F331FE20FF31FE153F74FCC
:1014B0009F2D9F732081207CF22EF92AF0821B86BB
:1014C0001C866CE00E94672B9CE0899FB001112470
:1014D00040E050E09B01240F351FF901EE0FFF1F84
:1014E0002E0F3F1FF901E153F74F908196FD16C073
:1014F0004F5F5F4F4C30510569F78130C1F5109255
:10150000800082E080938100109285001092840018
:10151000B19A80916F00826080936F008BE1809F11
:10152000F001819FF00D1124E459F64FE285F0E0BF
:10153000CF01880F991FE80FF91FE153F74F808102
:10154000806480838BE1809FF001819FF00D1124E6
:10155000E459F64F81E081870E9476216093460826
:101560007093470880934808909349082CC08230B4
:1015700061F4109290008093910010929500109267
:10158000940088BB80937100C9CF833069F41092B6
:10159000A00082E08093A1001092A5001092A40008
:1015A00089BB80937200BACF8111B8CF109220010D
:1015B00082E08093210110922501109224018ABBC0
:1015C00080937300ABCFDF91CF911F910F91FF906C
:1015D000EF90DF90CF90BF90AF909F908F907F90D3
:1015E0006F905F904F9008950E94AC1E20915E080E
:1015F00030E0821793079CF4880F991FFC01E65B8B
:10160000F74F808191810E94381E0E94762160935D
:1016100046087093470880934808909349080895B6
:101620000F931F93CF93DF930E94AC1EEC010E9497
:10163000591E882361F081E080938D1680938E1669
:1016400080918F16909190160E944F2805C010929D
:101650008E1660E070E0CB0120915E0830E0C2178A
:10166000D307A4F5CC0FDD1FC65BD74FE881F98106
:101670001182DF01AE5ABF4F0D911D912D913C910A
:1016800013976017710782079307B1F06D937D93ED
:101690008D939C931397018912892389348960174C
:1016A00071078207930741F0618B728B838B948B58
:1016B000CF0102960E94551C0E9476216093460835
:1016C000709347088093480890934908DF91CF9121
:1016D0001F910F910895CF930E94AC1EC82F0E94B6
:1016E000AC1EBC018C2F0E9450200E94762160937A
:1016F0004608709347088093480890934908CF9113
:1017000008950E947621609346087093470880935D
:1017100048089093490866E972E085E090E00C94EF
:101720007C1F1F920F920FB60F9211240BB60F92CF
:101730002F933F934F935F936F937F938F939F93D9
:10174000AF93BF93EF93FF938091B900887F80366A
:1017500009F49CC068F5883209F45BC090F48031CC
:1017600009F454C038F4882309F4F6C0883009F429
:101770004DC0F5C0883109F44CC0803209F45DC019
:10178000EEC0803409F468C048F4803309F455C0D1
:10179000883309F0E4C080939A08D8C0803509F4F2
:1017A0004FC0883509F45DC0883409F0D8C0D6C070
:1017B000883909F4C7C0A8F4883709F467C038F439
:1017C000883609F463C0803709F460C0C8C088381F
:1017D00009F4B8C0803909F45FC0803809F0BFC08F
:1017E0005BC0803B09F486C038F4803A09F466C0D7
:1017F000883A09F47FC0B3C0803C09F4A7C0883C94
:1018000009F4A4C0883B09F48AC0A9C08091770874
:1018100010C09091990880919808981770F5E09100
:10182000990881E08E0F80939908F0E0E858F74F0F
:1018300080818093BB0085EC86C080939A088EC01F
:10184000E091990881E08E0F809399088091BB0008
:10185000F0E0E858F74F80839091990880919808BC
:101860006EC0E091990881E08E0F80939908809175
:10187000BB00F0E0E858F74F808380918D03811121
:101880006DC081E080938C0384EA61C083E0809323
:101890008E0310923F08CFCF80913F08803208F02E
:1018A00051C0E0913F0881E08E0F80933F08809106
:1018B000BB00F0E0E15EF74F8083BDCF85EC809305
:1018C000BC0010928E0380913F08803230F4E0918A
:1018D0003F08F0E0E15EF74F108260913F0870E052
:1018E000E0918803F09189038FE198E019951092B7
:1018F0003F0835C084E080938E0310921E0810923A
:101900001D08E0918A03F0918B03199580911D08C1
:10191000811105C081E080931D081092FD07E091C0
:101920001E0881E08E0F80931E08F0E0E350F84F10
:1019300080818093BB0090911E0880911D089817AC
:1019400008F479CF85E88093BC0009C085EC8093CA
:10195000BC0010928E0303C010929A085ADBFF91CC
:10196000EF91BF91AF919F918F917F916F915F9117
:101970004F913F912F910F900BBE0F900FBE0F9084
:101980001F9018958F929F92AF92BF92CF92DF9245
:10199000EF92FF920F931F93CF93DF93EC01B62E3C
:1019A0000E947621098D1A8D2B8D3C8D6B017C0157
:1019B000C01AD10AE20AF30A97018601CD8CDE8CA7
:1019C0000D2C000CEE08FF080C151D052E053F051B
:1019D000C4F0288DFE0134E0239FE00DF11D112499
:1019E00010821182128213822F5F288F648775877D
:1019F00086879787698F7A8F8B8F9C8F233008F02B
:101A0000188EB1101DC0288DFE0144E0249FE00D0A
:101A1000F11D1124C484D584E684F7849B01AC01B4
:101A20002C193D094E095F0969017A011216130646
:101A300014061506D4F0C12CD12C7601C39415C020
:101A4000FE019E01245F3F4FC080D180E280F38081
:101A50004FEFC41AD40AE40AF40AC192D192E19277
:101A6000F1922E173F0781F7CECF6081718182817D
:101A700093810E94BF2820E030E04AE754E40E94AE
:101A80001E294B015C01C701B6010E94BF289B01C2
:101A9000AC01C501B4010E94BB2A6F8F78A389A352
:101AA0009AA3DF91CF911F910F91FF90EF90DF905C
:101AB000CF90BF90AF909F908F9008958F929F92FC
:101AC000AF92BF92CF92DF92EF92FF920F931F934C
:101AD000CF93DF93EC0188810E940102BB24B39471
:101AE000892B09F4B12C0E9476212A812983CB808D
:101AF000DC80ED80FE800F811885B216B9F09B0165
:101B0000AC012C193D094E095F0969017A01012ECA
:101B1000000C220B330BC016D106E206F3060CF0C4
:101B2000BA826B837C838D839E831CC0012E000C44
:101B3000220B330B4B015C018C189D08AE08BF08CB
:101B400080169106A206B3066CF0DC01CB01801B67
:101B5000910BA20BB30B0197A109B1098B839C8355
:101B6000AD83BE83DF91CF911F910F91FF90EF90D6
:101B7000DF90CF90BF90AF909F908F9008952F925D
:101B80003F924F925F926F927F928F929F92AF920D
:101B9000BF92CF92DF92EF92FF920F931F93CF935A
:101BA000DF931F921F92CDB7DEB78C0149832A8342
:101BB000660F771FF801EA5AFF4FE080F180EE0CC4
:101BC000FF1CF801CF01801B910B8E159F0514F4AB
:101BD0001192F8CF8981F801E60FF71F81838A817E
:101BE0008083480184E5880E911C60E0F4018081C7
:101BF0000E9429022801F2E54F0E511C380180E5B0
:101C0000680E711C1E141F043CF5E1E0EE1AF10889
:101C1000F801EE0DFF1DA080F2013080F30120805D
:101C200087E0C82ED12CB12CB5010C2C02C07595C3
:101C300067950A94E2F76170822D0E94290261E0A3
:101C4000832D0E94290260E0832D0E942902F1E089
:101C5000CF1AD10848F7D6CF61E0F40180810F9008
:101C60000F90DF91CF911F910F91FF90EF90DF9038
:101C7000CF90BF90AF909F908F907F906F905F902C
:101C80004F903F902F900C942902CF92DF92EF92C9
:101C9000FF921F93CF93DF937C016B01EB0183E0F5
:101CA000CC0FDD1F8A95E1F76096CE0DDF1D11E0A8
:101CB000199220E0412FB601C70161DF1F5F193083
:101CC000B9F7DF91CF911F91FF90EF90DF90CF9008
:101CD00008950F931F93CF93DF930E94AC1EEC01E6
:101CE0000E94AC1E8C010E94AC1E282FFE01EE0F3C
:101CF000FF1FEE0FFF1FEA56FE4E8281882389F0F8
:101D00008381081770F4B801772780819181FC01E5
:101D1000EA5AFF4F408151816417750714F44AE075
:101D20002EDF0E94762160934608709347088093C7
:101D3000480890934908DF91CF911F910F91089522
:101D4000C8CF77FD0FC0FC01EA5AFF4F20813181D7
:101D5000621773073CF4442311F020E001C021E036
:101D60004CE00DCF0895CF93DF93CDB7DEB7289722
:101D70000FB6F894DEBF0FBECDBF0E94BF1EBC01E0
:101D8000CE0101967CD740E350E06FE172E0CE01D6
:101D900001960E94B91F83E290E098878F8341E00B
:101DA00050E0BE01695F7F4F80E090E00E94DB1F42
:101DB0004FE250E06FE172E081E090E00E94DB1FB3
:101DC00085E090E00E944A1F8FE192E00E949E1FF2
:101DD0000E945E1F89819A810E94132C28960FB65B
:101DE000F894DEBF0FBECDBFDF91CF9108956F9203
:101DF0007F928F929F92AF92BF92CF92DF92EF929B
:101E0000FF920F931F93CF93DF9300D000D0CDB7F5
:101E1000DEB70E94AC1E8C010E94AC1E7C010E94A9
:101E2000BF1E6C010E94AC1E4C010E94AC1E5C01E6
:101E3000000F111F000F111F0A561E4ED8011296D7
:101E40008C91882309F457C0B601CE01019617D7AB
:101E5000FF24370183E0660C771C8A95E1F7D12CCB
:101E600048E0BB249924CC24CA94C40E6C2D70E0A5
:101E7000C5010C2C02C0959587950A94E2F780FF66
:101E800033C08D2D90E02D813E818217930750F451
:101E900029813A812115310529F0F901E80FF91F4F
:101EA000E08101C0E0E0D8018D919C91DC01AA5A4B
:101EB000BF4F2D913C91E216F306ACF4F0E0E359EC
:101EC000FD4F2081F4010C2C02C0F595E7950A9492
:101ED000E2F7E0FD2068680F791FFB01E60DF71DB2
:101EE000208BB7014CDED3944C2DC110BCCF89811F
:101EF0009A810E94132C0E94762160934608709369
:101F00004708809348089093490826960FB6F8949E
:101F1000DEBF0FBECDBFDF91CF911F910F91FF901C
:101F2000EF90DF90CF90BF90AF909F908F907F9079
:101F30006F900895E7E9F3E09081981301C0108253
:101F4000319693E0EC3DF907B9F7089581E080936D
:101F5000600860EA72E081E190E00C947C1FFF92DF
:101F60000F931F93CF93DF9381E0E4DF1092DC03A4
:101F700088E0E0DF10925F0883E0DCDF10929603D8
:101F800084E0D8DF00E010E0C0919503D0E0C017F6
:101F9000D10789F0CC0FDD1FCC0FDD1FCA56DE4EF6
:101FA0008A81882329F0888199810E94132C1A82C2
:101FB0000F5F1F4FE9CF109295038091940320E0AB
:101FC00030E0482F50E06BE1869FC0011124845916
:101FD000964FDC011996EC012A964217530799F0A7
:101FE0006C91662369F0E881F0E0BF01660F771F0E
:101FF000E60FF71FE153F74F60816F7B60831C9200
:102000002F5F3F4FEACF86E095DF10929403C0E048
:10201000D0E080915E0890E08C179D0759F0880F02
:10202000991FFC01E65BF74F808191810E94132C80
:102030002196EFCF89E07EDF10925E0800E010E08D
:1020400086E0F82E8091930390E08017910791F03D
:10205000F89EE001F99ED00D1124C05AD64F8A8116
:10206000882329F0888199810E94132C1A820F5F9E
:102070001F4FE8CF10929303109245081092440826
:1020800010926008DF91CF911F910F91FF900895FA
:1020900066DF6AE972E085E090E00C947C1F40E026
:1020A00054E06DED73E08BE390E00E94DB1F6DE97F
:1020B00072E08FE090E00C947C1F0F931F93CF93FE
:1020C000C82F8A0187E090E00E944A1FC8010E9441
:1020D0009E1F8091C315882391F06091971680917F
:1020E00094169091951619D64C2F50E060E070E050
:1020F0002AE080919416909195160E94D11ECF915E
:102100001F910F910C945E1F0F931F93CF93C82FB5
:102110008A0186E090E00E944A1FC8010E949E1F2B
:102120008091C315882391F0609197168091941641
:1021300090919516F2D54C2F50E060E070E02AE0C7
:1021400080919416909195160E94D11ECF911F9167
:102150000F910C945E1FDF92EF92FF920F931F93EB
:10216000CF93DF93D82EC6E9D1E1E12CF12C8091F9
:10217000950390E0E816F90689F010E08B8181174D
:1021800041F0612F70E04D2D88819981DADD1F5F6C
:10219000F5CF8FEFE81AF80A2496E9CFC6EDD4E11F
:1021A00000E010E08091960390E00817190779F09D
:1021B000DD2021F0198260E070E002C0698170E0EA
:1021C00088810E9450200F5F1F4F2296EBCFDF9136
:1021D000CF911F910F91FF90EF90DF9008955F9244
:1021E0006F927F928F929F92AF92BF92CF92DF9227
:1021F000EF92FF920F931F93CF93DF93CDB7DEB78C
:10220000CB55D1090FB6F894DEBF0FBECDBF70908D
:102210005F0894E1791609F4E6C0E82FF0E0DF01E9
:10222000A956BC4F7D019C919111DDC0E62FF0E0D5
:10223000DF01A956BC4F6D019C919111D4C0642E51
:10224000562E682FA72CB12CFE01349687E4DF01AF
:102250001D928A95E9F782E390E06C969FAF8EAF6E
:102260006C971B828BE58A9D40018B9D900C1124FD
:1022700084010658154F3397D80101900D928A9525
:10228000E1F7F801E45BFF4F1082118212821382A2
:10229000329731832083F80160835182E85AFF4FDF
:1022A0004083C4018358954F0E942C20652DC401A2
:1022B0008A57954F0E942C20D80155961C9255970D
:1022C00057961C921E92569759961C921E9258979A
:1022D000F801128E138E148E158E88EE93E0A0E016
:1022E000B0E0868F978FA0A3B1A3D401A456B54FB9
:1022F00085E0869DF0011124E351FD4F01900D9280
:102300008A95E1F70E947621F801E05CFF4F608337
:102310007183828393832BE5729EF0011124EF5524
:10232000F54F20E0119211921192119260877187FE
:10233000828793872F5F2330A9F78BE58A9DF00171
:102340008B9DF00D1124E658F54F17AEDF01AC5B05
:10235000BF4F26EA30E011963C932E9348E15CEFA4
:102360006FEF7FEF428F538F648F758F48EE53E08E
:1023700060E070E0468F578F60A371A318964D916F
:102380005C91BA0106A002C0759567950A94E2F7C0
:102390002689378923703327262B372B378B268BBB
:1023A000518F408F91E0928320915F08829FC001FE
:1023B00011248658954FFC01E05BFF4F44E850E143
:1023C00051834083329651834083329651834083B8
:1023D00032965183408388E0F7018083D6018C9345
:1023E0002F5F20935F08C55ADF4F0FB6F894DEBF0A
:1023F0000FBECDBFDF91CF911F910F91FF90EF9056
:10240000DF90CF90BF90AF909F908F907F906F9014
:102410005F900895CF92DF92EF92FF92F82E4BE0FB
:1024200050E064E172E080E390E00E94DB01F11093
:1024300009C080911402833529F4809115028E34ED
:1024400009F460C080917B00877F80937B0080E4EB
:1024500080937C0080917A00806480937A008091E0
:102460007A0086FDFCCF609178008091790070E061
:10247000782B072E000C880B990B611571058105CF
:10248000910511F00E9429280E94DE27CC24CA94CD
:102490002FE0D22EE12CF12CA70196010E94F92900
:1024A0007F936F938EE693E09F938F9384E192E006
:1024B0009F938F930E949F2D0E94DE27A701960174
:1024C0000E94F9297F936F9387E793E09F938F93FF
:1024D0008BE192E09F938F930E949F2D8DB79EB7C3
:1024E0000C960FB6F8949EBF0FBE8DBF4BE050E028
:1024F00064E172E080E390E0FF90EF90DF90CF9096
:102500000C94DB1FFF90EF90DF90CF900895CF9356
:10251000DF9300D000D0CDB7DEB76DED73E0CE0114
:102520000196ADD3CE0101960E94930289819A81D2
:102530000E94132C0BDD26960FB6F894DEBF0FBE5B
:10254000CDBFDF91CF9108950F931F93CF93DF936A
:1025500000D000D0CDB7DEB70E9476216093460848
:102560007093470880934808909349080E94BF1EC3
:10257000BC01CE01019683D3609144087091450857
:102580004D815E818B01040F151F40E054E0401B1C
:10259000510B423051056CF163527C4F611571054E
:1025A00021F0CE0101960E94B91F109345080093B7
:1025B00044088091C315811133C085E090E00E94EA
:1025C0004A1F8091C315882389F0609197168091E6
:1025D000941690919516A1D3A801110F660B770B55
:1025E00080919416909195160E941A1F0E945E1F6A
:1025F00017C08091C315811113C085E090E00E943F
:102600004A1F8091C315882389F3609197168091A2
:1026100094169091951681D34FEF5FEFBA01E0CFFA
:1026200089819A810E94132C26960FB6F894DEBFFA
:102630000FBECDBFDF91CF911F910F910895CF9322
:10264000DF9300D000D0CDB7DEB7209142083091A3
:10265000430880914008909141082817390721F4D8
:1026600010924108109240088091400890914108D2
:1026700090934308809342081092DD0380E0CADE05
:10268000E7E9F3E0119243E0EC3DF407D9F70E944B
:10269000762160934608709347088093480890938A
:1026A00049085DDC40E054E06DED73E08BE390E0C1
:1026B0000E94DB01EDEDF3E080E090E0382F292F60
:1026C000811544E0940749F0419101964111F6CFFC
:1026D000309344082093450804C0909345088093A4
:1026E00044086DED73E0CE010196C9D2CE0101968A
:1026F0000E94930289819A810E94132C27DC1982FF
:1027000041E050E0BE016F5F7F4F80E090E00E94AB
:10271000DB018981833241F44FE250E06FE172E0E6
:1027200081E090E00E94DB0126960FB6F894DEBFB0
:102730000FBECDBFDF91CF9108952F923F924F9260
:102740005F926F927F928F929F92AF92BF92CF9241
:10275000DF92EF92FF920F931F93CF93DF93CDB74A
:10276000DEB72A970FB6F894DEBF0FBECDBFE0915B
:102770005E08EA3009F4E9C1FC01FF27DF01A95630
:10278000BC4FBA83A983EC91E111DFC1FB01FF27A4
:10279000DF01A956BC4FBC83AB83EC91E111D5C1DD
:1027A000FA01FF27DF01A956BC4FBE83AD83EC9130
:1027B000E111CBC1F901FF27DF01A956BC4FB88752
:1027C000AF83EC91E111C1C1101611063CF4F80180
:1027D000FF27E956FC4FE081E111B7C149017A01B9
:1027E0005B016C0186E590E00E947B2B9A878987CC
:1027F0003C01F2E06F0E711C8AE093E0A985BA8576
:1028000013969C938E93129784E014968C9314974E
:10281000FD01158616861786108A51961D921D9207
:102820001D921C925497158A168A178A108E212C95
:10283000312C80E8482E8FE3582E59962D923D92E8
:102840004D925C925C97158E168E178E10A2919603
:102850002D923D924D925C92949715A216A217A2CA
:1028600010A681E090E096A785A78FEF80AB9996A0
:102870001D921D921D921C929C9715968C921597F5
:102880001696AC9216971796CC9217971896EC92CC
:10289000189715AA16AA17AA10AED9961D921D92BE
:1028A0001D921C92DC97FD96108211821282138277
:1028B0005D01B1E4AB0EB11CF50120823182428290
:1028C0005382E985FA85EB5BFF4F1082A985BA85B3
:1028D00019961C9219971A961C921A971B961C927D
:1028E0001B971C961C92C30103D6E985FA85C58CFB
:1028F000D68CE78CF0A0A2019101C701B6010E941D
:10290000B928882331F1E985FA8565A976A987A9CF
:1029100090AD0E94BF28A70196010E941E290E9427
:10292000232BA985BA85D5966D937D938D939C9322
:10293000D89786E896E6A9E6B9E4E985FA8581AFF5
:1029400092AFA3AFB4AF258E368E478E50A2C3018F
:10295000ACD74CE753E0602FE984FA84B6E4EB0E81
:10296000F11CC7010E94001EE985FA851182809141
:102970007608E82FF0E0EE0FFF1FEE59F74F29859C
:102980003A85318320838F5F8093760885E499E1CF
:10299000D70119969C938E9318971B969C938E93B0
:1029A0001A97E0915E08F0E0EE0FFF1FE65BF74F2D
:1029B0003183208320E030E048EC53E4E985FA8558
:1029C000618D728D838D948D0E94B928882309F4BE
:1029D00044C080E090E0A8ECB3E4E985FA85818FFB
:1029E000928FA38FB48F80E090E4ACE1B5E4F50161
:1029F00080839183A283B383E985FA8585A996A90B
:102A0000A7A9B0AD181619061A061B0634F5658974
:102A100076898789908D9B01AC010E941E296B01EC
:102A20007C01A985BA855D966D917D918D919C9172
:102A300090979B01AC010E94572A9B01AC01C701F2
:102A4000B6010E94BB2A0E94232BE985FA8565AB5B
:102A500076AB87AB90AFC30128D7E0915E08F0E07A
:102A6000EE0FFF1FE65BF74F208131813A87298700
:102A7000D9015D96CD90DD90ED90FC90909720E08F
:102A800030E048E454E4C701B6010E94B928882325
:102A9000B9F1E985FA8565A976A987A990AD0E9463
:102AA000BF284B015C0120E030E048E454E4C7015A
:102AB000B6010E94BB2A9B01AC01C501B4010E9472
:102AC0001E290E94232BA985BA85D5966D937D93E7
:102AD0008D939C93D89781E098E0A4E0B7E4E985D2
:102AE000FA8581AF92AFA3AFB4AF80E090E0A8E4E5
:102AF000B4E4858F968FA78FB0A3CF010296D5D669
:102B000089E0A981BA818C93EB81FC818083AD81BE
:102B1000BE818C93EF81F88580831016110684F4B2
:102B20001127F801E956FC4F8083E0915E08F0E040
:102B3000EE0FFF1FE65BF74F808191810E94381EE8
:102B400080915E088F5F80935E082A960FB6F89496
:102B5000DEBF0FBECDBFDF91CF911F910F91FF90D0
:102B6000EF90DF90CF90BF90AF909F908F907F902D
:102B70006F905F904F903F902F900895CF92DF928B
:102B8000EF92FF920F931F93CF93DF936C017A0123
:102B90008B01C0E0D0E0CE15DF0581F0D8016D914A
:102BA0008D01D601ED91FC910190F081E02DC601DF
:102BB0001995892B11F02196EECF7E01C701DF9187
:102BC000CF911F910F91FF90EF90DF90CF900895DC
:102BD0000E947C2D86E295E170D121E0892B09F4D9
:102BE00020E0822F0895EF92FF920F931F93CF93CF
:102BF000DF93EC0181E0888F9B8D8C8D981305C04D
:102C0000E889F989808185FD25C0F62E0B8D10E0BD
:102C10000F5F1F4F0F731127E02E8C8DE8120BC032
:102C20000FB607FCFACFE889F989808185FFF5CFD7
:102C3000CE01B0D4F2CF8B8DFE01E80FF11DE35A27
:102C4000FF4FF0829FB7F8940B8FEA89FB89808150
:102C500080620AC09FB7F894EE89FF896083E88993
:102C6000F98980818370806480839FBF81E090E0D8
:102C7000DF91CF911F910F91FF90EF900895EF9208
:102C8000FF920F931F93CF93DF93EC011982188269
:102C90001B821A821D821C8261157105B9F17B01AC
:102CA000FB0101900020E9F731978F01061B170BFC
:102CB000B8016F5F7F4F80E090E00E949C2C0097EE
:102CC00059F0998388831B830A832C813D81232BB0
:102CD00081F4FC0110820DC088819981009711F068
:102CE0000E94132C198218821D821C821B821A8258
:102CF0000DC01D830C83B70188819981DF91CF912D
:102D00001F910F91FF90EF900C94892DDF91CF913F
:102D10001F910F91FF90EF900895DC01ED91FC91D0
:102D20000190F081E02D1994EF92FF920F931F9381
:102D3000CF93DF938C017B01C0E0D0E0F701EC0F73
:102D4000FD1F6491662361F0D801ED91FC91019023
:102D5000F081E02DC8011995892B11F02196EECF55
:102D6000CE01DF91CF911F910F91FF90EF900895C9
:102D70006115710579F0FB0101900020E9F73197A9
:102D8000AF01461B570BDC01ED91FC910280F381F2
:102D9000E02D199480E090E008951F920F920FB6F5
:102DA0000F9211240BB60F922F933F934F935F9383
:102DB0006F937F938F939F93AF93BF93EF93FF9303
:102DC00086E295E1E7D3FF91EF91BF91AF919F919B
:102DD0008F917F916F915F914F913F912F910F90C4
:102DE0000BBE0F900FBE0F901F9018951F920F9261
:102DF0000FB60F9211240BB60F922F938F939F93C0
:102E0000EF93FF93E0913615F09137158081E091B3
:102E10003C15F0913D1582FD12C0908180913F15C7
:102E20008F5F8F7320914015821751F0E0913F150D
:102E3000F0E0EA5DFA4E958F80933F1501C08081E6
:102E4000FF91EF919F918F912F910F900BBE0F905B
:102E50000FBE0F901F901895FC01538D448D252FA8
:102E600030E0842F90E0821B930B541710F0CF9624
:102E7000089501970895FC01918D828D981761F056
:102E8000828DDF01A80FB11D5D968C91928D9F5FA1
:102E90009F73928F90E008958FEF9FEF0895FC014C
:102EA000918D828D981731F0828DE80FF11D858DFF
:102EB00090E008958FEF9FEF0895FC01918D228D92
:102EC000892F90E0805C9F4F821B91098F73992717
:102ED000089580E090E0892B19F07CDE811125C0F7
:102EE00080E090E0892B41F080E090E0892B21F098
:102EF0000E94000081111CC080E090E0892B41F00D
:102F000080E090E0892B21F00E940000811113C025
:102F100080E090E0892BA1F080E090E0892B81F0A7
:102F20000E94000081110AC008950E940000D8CFBD
:102F30000E940000E1CF0E940000EACF0C94000044
:102F40000895CF93DF93DC014770552766277727D5
:102F5000FA013197CD91DC911197E730F10530F40A
:102F60008827E357FF4F8F4F0C94732BEC81FD8123
:102F700061E01BC0EC81FD8165E017C0EC81FD8143
:102F800064E013C0EC81FD8166E00FC0EC81FD813F
:102F900062E00BC0EC81FD816AE007C0EC81FD813D
:102FA00068E003C0EC81FD8169E0CD01DF91CF9144
:102FB0001994CF93DF93EC01CB01BA0126E030E006
:102FC00040E050E00E94F9296230710581059105C9
:102FD00059F18CF46115710581059105F1F06130AD
:102FE000710581059105C1F5E881F9810480F581BC
:102FF000E02D65E02DC0643071058105910511F16A
:10300000D4F0653071058105910531F5E881F981CC
:103010000480F581E02D66E01BC0E881F981048021
:10302000F581E02D64E014C0E881F9810480F58128
:10303000E02D61E00DC0E881F9810480F581E02D8B
:1030400063E006C0E881F9810480F581E02D62E04B
:10305000CE01DF91CF911994DF91CF910895437004
:10306000552766277727DC01ED91FC910480F581D7
:10307000E02D423051056105710571F04330510575
:103080006105710559F0413051056105710511F077
:1030900065E005C066E003C06AE001C069E019941C
:1030A000CF93DF93EC01CB01BA0123E030E040E0A5
:1030B00050E00E94F929613071058105910581F088
:1030C000623071058105910591F0672B682B692BA2
:1030D000C1F4E881F9810480F581E02D64E00DC040
:1030E000E881F9810480F581E02D61E006C0E88186
:1030F000F9810480F581E02D62E0CE01DF91CF916E
:103100001994DF91CF91089543705527662777274B
:10311000DC01ED91FC910480F581E02D42305105F8
:103120006105710571F0433051056105710559F074
:10313000413051056105710511F062E005C063E0A1
:1031400003C061E001C060E019940F931F93CF9317
:10315000DF93EC01E881F9810480F581E02D8C0199
:103160000D5B1F4FD8018C91811102C060E001C03E
:1031700062E0CE011995E881F9810480F581E02DA6
:10318000D8018C91811102C061E001C063E0CE01E1
:1031900019958BA59CA58230910538F0880F991F51
:1031A000880F991F05970197F1F7E881F98104804D
:1031B000F581E02DD8018C91811102C060E001C041
:1031C00062E0CE01DF91CF911F910F911994CF93BF
:1031D000DF93EC0120E030E0A9016B897C898D89C7
:1031E0009E890E94542B18161CF4EFA5F8A902C062
:1031F000E9A9FAA9DF91CF9119940F931F93DC01EC
:1032000012960C91129710E009301105D8F5F801CB
:103210008827EC56FF4F8F4F0C94732BED91FC9148
:1032200011970084F185E02D29C0ED91FC91119753
:103230000284F385E02D22C0ED91FC911197048466
:10324000F585E02D1BC0ED91FC9111970684F78563
:10325000E02D14C0ED91FC9111970088F189E02DCB
:103260000DC0ED91FC9111970288F389E02D06C005
:10327000ED91FC9111970488F589E02DCD011F9106
:103280000F9119941F910F910895CF93DF9381119E
:103290002DC02091760830E0A2E6B8E080E090E012
:1032A000821793071CF5ED91FD91EF01CA5BDF4F8B
:1032B0004A81641319C081818823C1F0158616865E
:1032C0001786108A118A128A138A148A15AA16AAD6
:1032D00017AA10AE15A216A217A210A6158A168A52
:1032E000178A108E118202C00196DACFDF91CF913A
:1032F0000895CF92DF92EF92FF920F931F93CF9397
:10330000DF936C018B017A01EC01C454D74F8881A3
:1033100087FF04C0FB011182108224C02CE02C9D89
:10332000C0012D9D900D11242881AC01420F511D2B
:1033300027FD5A9520915F0930E04217530794F416
:103340002881AC01420F511D27FD5A959A01FA01BF
:10335000EE0FFF1F2E0F3F1FF901E153F74F2081A2
:1033600026FD19C088818F5F88832CE02C9DC001C9
:103370002D9D900D11242881AC01420F511D27FD78
:103380005A9520915F0930E042175307BCF4288119
:103390002C3044F113C02881820F911D27FD9A958E
:1033A000FC01EE0FFF1F8E0F9F1FFC01E153F74F33
:1033B000808160E08F730E942902D4CFF801808160
:1033C0009181049680349C4918F480E49CE904C0FF
:1033D000F801808191810496F701918380838FEFBA
:1033E000888345C0F801408151812881BC01620F6A
:1033F000711D27FD7A959B01FB01EE0FFF1F2E0F1C
:103400003F1FF901E153F74F21813281240F351F0E
:10341000F701318320832881AC01420F511D27FD24
:103420005A959A01FA01EE0FFF1F2E0F3F1FF90167
:10343000E153F74F208126FF1AC02881820F911D8A
:1034400027FD9A95FC01EE0FFF1F8E0F9F1FFC01B9
:10345000E153F74F808161E08F73DF91CF911F912E
:103460000F91FF90EF90DF90CF900C942902DF91A5
:10347000CF911F910F91FF90EF90DF90CF90089523
:10348000CF92DF92EF92FF920F931F93CF93DF9330
:10349000EC019A81943041F0983031F0933031F062
:1034A000963021F012E003C014E001C013E023962F
:1034B000E12CF12CC62ED12C01E0C6010E2C02C04D
:1034C000959587950A94E2F76C8180FD6027899134
:1034D0000E9429028FEFE81AF80AE11670F3DF91D3
:1034E000CF911F910F91FF90EF90DF90CF900895B3
:1034F000CF93DF93FC012281222359F1EC0161E09B
:1035000083810E94570261E08C810E9457028A8168
:10351000843011F0883039F461E08D810E945702C7
:1035200061E08E8106C0833011F0863021F461E0C5
:103530008D810E9457028EA58F3F59F061E00E9455
:1035400057026DA581E068278EA5DF91CF910C947D
:103550002902DF91CF910895CF93DF93FC0122815F
:103560002223A9F0EC010190F081E02D0480F58187
:10357000E02D60E019958EA58F3F49F061E00E9433
:1035800057026DA58EA5DF91CF910C942902DF9192
:10359000CF910895FC01848DDF01A80FB11DA35ABE
:1035A000BF4F2C91848D90E001968F739927848F63
:1035B000A689B7892C93A089B1898C918370806486
:1035C0008C93938D848D981306C00288F389E02D27
:1035D00080818F7D80830895CF93DF93EC01888D68
:1035E0008823C1F0EA89FB89808185FD05C0A8890F
:1035F000B9898C9186FD0EC00FB607FCF5CF80818E
:1036000085FFF2CFA889B9898C9185FFEDCFCE01D6
:10361000C1DFE8CFDF91CF910895CF93FC01C48142
:1036200021E020939B08C093C00810929003109251
:103630008F038385682B81EC98E00E949508909118
:103640008F03913208F045C080918E038111FCCF29
:1036500082E080938E0381E080938D038FEF8093CF
:103660009A081092990890939808ACE9B8E0E8E7B6
:10367000F8E080E0981721F02D9121938F5FFACF29
:103680001092770880917708CC0FC82BC0937708E9
:1036900080918C03813061F410928C0380917708C3
:1036A0008093BB008091BC0083FDF8CF85EC01C006
:1036B00085EE8093BC0080918E038230E1F380918F
:1036C0009A088F3F31F080919A08803211F08091F2
:1036D0009A081092900310928F0310929B08CF913A
:1036E00008950F931F93CF938C01C62F96DF6C2FF5
:1036F0006460C80192DF6C2F6B7FC8018EDF83ECA2
:1037000090E00197F1F7CF911F910F9108950F93DA
:103710001F93CF93DF938C01C62FD42F607F642B30
:10372000E0DF80E1C89FB00111246D2BC801DF915B
:10373000CF911F910F91D5CF41E0E9DF81E090E07B
:1037400008951F920F920FB60F9211240BB60F928D
:103750002F933F934F935F936F937F938F939F9399
:10376000AF93BF93EF93FF9348E251E064E271E0BF
:1037700080E090E0BEDDFF91EF91BF91AF919F910E
:103780008F917F916F915F914F913F912F910F900A
:103790000BBE0F900FBE0F901F9018951F920F92A7
:1037A0000FB60F9211240BB60F922F933F934F93A6
:1037B0005F936F937F938F939F93AF93BF93EF9399
:1037C000FF9348EA50E064EA70E083E090E091DD26
:1037D000FF91EF91BF91AF919F918F917F916F91E9
:1037E0005F914F913F912F910F900BBE0F900FBEA5
:1037F0000F901F9018951F920F920FB60F921124E1
:103800000BB60F922F933F934F935F936F937F93DA
:103810008F939F93AF93BF93EF93FF9348E950E04B
:1038200064E970E082E090E064DDFF91EF91BF9188
:10383000AF919F918F917F916F915F914F913F9148
:103840002F910F900BBE0F900FBE0F901F901895E9
:103850001F920F920FB60F9211240BB60F922F9357
:103860003F934F935F936F937F938F939F93AF9308
:10387000BF93EF93FF9348E850E064E870E081E085
:1038800090E037DDFF91EF91BF91AF919F918F91C4
:103890007F916F915F914F913F912F910F900BBE50
:1038A0000F900FBE0F901F9018954F925F926F92DE
:1038B0007F928F929F92AF92BF92CF92DF92EF92C0
:1038C000FF920F931F93CF93DF93EC018F8498881F
:1038D000A988BA888B859C85AD85BE85881A990A8A
:1038E000AA0ABB0A6B897C898D899E899B01AC01E0
:1038F0000E941E296B017C016B8D7C8D8D8D9E8DB0
:103900009B01AC010E94572A9B01AC01C701B60183
:103910000E94BB2A0E94232B81149104A104B104AC
:1039200099F462307105810591050CF079C01BA2F4
:103930001CA21DA21EA21B8A1C8A1D8A1E8A1BAAEB
:103940001CAA1DAA1EAAF4C00BA91CA92DA93EA938
:10395000FE01ED5BFF4F181419041A041B04FCF45C
:1039600010161106120613064CF4681579058A051F
:103970009B054CF52081211153C025C0011511056F
:103980002105310509F44CC0681579058A059B05A8
:103990000CF046C08081882309F442C036C010165E
:1039A000110612061306ECF40027112798010819D6
:1039B00019092A093B0960177107820793071CF44C
:1039C0002081222369F19B01AC0188279927DC0122
:1039D000821B930BA40BB50B8BAB9CABADABBEABFF
:1039E0001FC00115110521053105D1F0CC24DD24BE
:1039F0007601C818D908EA08FB086C157D058E0504
:103A00009F0574F4808181110BC03095209510952D
:103A100001951F4F2F4F3F4F0BAB1CAB2DAB3EAB58
:103A2000CBA8DCA8EDA8FEA88E010D5B1F4FC1142A
:103A3000D104E104F10491F48FA998ADA9ADBAAD18
:103A40008BAF9CAFADAFBEAF81E0181419041A0460
:103A50001B040CF080E0F80180833EC08BAC9CAC72
:103A6000ADACBEACA5019401C501B4010E94572ABA
:103A70002B013C01C701B6010E94BF2820E030E0C5
:103A800040E850E40E941E2920E030E040E85FE377
:103A90000E94572A9B01AC01C301B2010E94BB2ABC
:103AA0009B01AC01C501B4010E94562A2B013C01C7
:103AB000FE01FF9680809180A280B3809401A501D1
:103AC0000E94542B181614F442015301C401D5016D
:103AD0008BAF9CAFADAFBEAFFFEFCF1ADF0AEF0ADF
:103AE000FF0ACBAADCAAEDAAFEAACBACDCACEDACFB
:103AF000FEACC701B6010E94282B6BA37CA38DA34B
:103B00009EA3A701960160E074E284E799E40E9415
:103B1000BB2A6B8B7C8B8D8B9E8BF80120812111B6
:103B200007C0DC01CB01B0588B8B9C8BAD8BBE8B5F
:103B3000DF91CF911F910F91FF90EF90DF90CF9089
:103B4000BF90AF909F908F907F906F905F904F90BD
:103B50000895DC0113968C91139781110CC018966F
:103B6000ED91FC911997309731F04D915C9111973F
:103B700012966C910CC01A96ED91FC911B973097A0
:103B800039F04D915C91119712966C9181E01994E6
:103B90000895CF92DF92EF92FF92CF93DF93EC01E3
:103BA000A5D36B017C018C819D81AE81BF81A70172
:103BB0009601281B390B4A0B5B0B2B303105410555
:103BC0005105B8F08A810E940102CC82DD82EE822A
:103BD000FF829B81891769F091E0811101C090E01B
:103BE0009B83CE01DF91CF91FF90EF90DF90CF903C
:103BF000B0CFDF91CF91FF90EF90DF90CF900895FD
:103C0000CF93DF93EC016A835983488381E08B83F0
:103C10006DD36C837D838E839F8360E08A810E9455
:103C2000570261E08A81DF91CF910C942902AC01A7
:103C30001092C8159091981680919716FA01BF01BD
:103C4000641B750BDF012081222381F03091C815A0
:103C50002093C815291304C0931302C01092C815ED
:103C600031962C912813EBCF931749F3CB0108958C
:103C7000FC01DC01A85BBF4F8C918823C9F08181D6
:103C8000811116C081E0818381899289A389B489D9
:103C900080369947AE4FBF4F59F080E699E7AEEFB7
:103CA000BFEF818B928BA38BB48BCF010296FDCD9E
:103CB00008950F931F93CF93DF9380918C168823E1
:103CC00009F440C0813031F482E080938C16CCEC52
:103CD000D5E102C0C0E0D0E080918D16882341F18B
:103CE000209721F4C0919116D09192168E01CE01A9
:103CF0009EDF892B29F42196F80180818111F6CF6E
:103D0000F8018081882301F1C80191DFF801E80FF3
:103D1000F91F8081882311F010823196F09392165A
:103D2000E0939116902F812F90938F168093901689
:103D300080918F1690919016892B21F081E08093CD
:103D40008D1605C080E003C090E080E0EDCFDF91EC
:103D5000CF911F910F910895ACDF882359F081E036
:103D600080938D1680938E1680918F169091901669
:103D70000C94322810928E1680E090E0089599DF1E
:103D8000882351F081E080938D1680938E16809168
:103D90008F1690919016089510928E1680E090E004
:103DA00008958F929F92AF92BF92EF92FF920F93DE
:103DB0001F93CF93DF93CDB7DEB7A1970FB6F894DB
:103DC000DEBF0FBECDBF7C01FA01CB0119A22230AC
:103DD00008F42AE08E010F5D1F4F822E912CA12C3A
:103DE000B12CBF01A50194010E94252AF901CA0145
:103DF000015011096A3014F4605D01C0695CD8019A
:103E00006C93232B242B252B61F7B801C7010E944B
:103E1000B816A1960FB6F894DEBF0FBECDBFDF91E6
:103E2000CF911F910F91FF90EF90BF90AF909F9017
:103E30008F900895CF92DF92EF92FF920F931F938E
:103E4000CF93DF9377FF1CC06A017B01EC016DE229
:103E50000E948D168C0144275527BA014C195D0923
:103E60006E097F092AE0CE019CDF800F911FDF9150
:103E7000CF911F910F91FF90EF90DF90CF90089519
:103E80002AE0DF91CF911F910F91FF90EF90DF908B
:103E9000CF9087CFAC018091C31581110EC081E016
:103EA0008093C3158093CA15052E000C660B770B03
:103EB0008091941690919516BDCF08958091C31569
:103EC0008823A1F060919616809194169091951692
:103ED0000E948D168091CB15882341F065E873E030
:103EE00080919416909195160E94B8161092CA155A
:103EF0001092C31580E00895CF93DF932091C315EE
:103F0000211118C0EB01C6DF8091C315882379F019
:103F10006091971680919416909195160E948D1637
:103F2000BE0180919416909195160E949416DF918F
:103F3000CF91C4CF80E0DF91CF910895CF93DF93ED
:103F40002091C315222391F0EC0160919716809186
:103F50009416909195160E948D16BE01809194162C
:103F600090919516DF91CF910C94B816DF91CF9177
:103F700008950F931F93CF93DF93FC01C481D581E4
:103F8000209719F4FB01108211C0415051094C17C0
:103F90005D0708F4EA018B01FC0160817181AE01CB
:103FA000C8010E94902DC00FD11F1882DF91CF91C0
:103FB0001F910F910895CF92DF92EF92FF920F938E
:103FC0001F93CF93DF936C017B018A01C0E0D0E0A7
:103FD000C017D10760F4B6016C0F7D1F41E050E0BF
:103FE000C7018C0F9D1F0E94E2292196F1CFC801C5
:103FF000DF91CF911F910F91FF90EF90DF90CF90C5
:104000000895CF93DF93CDB7DEB728970FB6F89416
:10401000DEBF0FBECDBF28E0E0E3F3E0DE01119686
:1040200001900D922A95E1F7FC012185261710F4E5
:104030006FEF620FFE013196E60FF11DE60FF11DE5
:104040006081606840E028960FB6F894DEBF0FBE2E
:10405000CDBFDF91CF915BCB1F93CF93DF93EC016B
:10406000162F688385E090E098878F8360E0812F2A
:104070000E94570261E0812F0E94290237D16B8391
:104080007C838D839E8388810E94010221E0892B9D
:1040900009F420E02A832983DF91CF911F910895AD
:1040A0001F93CF93DF93182FEB0161E00E9457021B
:1040B000209711F460E004C0CF3FD10539F461E0EE
:1040C000812FDF91CF911F910C942902E12FF0E015
:1040D000E85CFD4FE4918E2F90E0FC013197E231D6
:1040E000F10508F09DC08827E356FF4F8F4F0C94D1
:1040F000732B84B5806884BDC7BD97C084B58062CA
:1041000084BDC8BD92C0809180008068809380008B
:10411000D0938900C093880088C08091800080621D
:1041200080938000D0938B00C0938A007EC08091E2
:104130008000886080938000D0938D00C0938C00B5
:1041400074C08091B00080688093B000C093B300C9
:104150006CC08091B00080628093B000C093B400C6
:1041600064C080919000806880939000D093990003
:10417000C09398005AC08091900080628093900014
:10418000D0939B00C0939A0050C0809190008860AB
:1041900080939000D0939D00C0939C0046C0809176
:1041A000A00080688093A0008091A0008F7B809306
:1041B000A000D093A900C093A80037C08091A000B0
:1041C00080628093A000D093AB00C093AA002DC062
:1041D0008091A00088608093A000D093AD00C09330
:1041E000AC0023C080912001806880932001D0938F
:1041F0002901C093280119C0809120018062809319
:104200002001D0932B01C0932A010FC0809120017F
:10421000886080932001D0932D01C0932C0105C0AC
:10422000C038D1050CF04BCF45CFDF91CF911F9116
:1042300008953FB7F8948091DC169091DD16A09117
:10424000DE16B091DF1626B5A89B05C02F3F19F0EA
:104250000196A11DB11D3FBFBA2FA92F982F882706
:10426000820F911DA11DB11DBC01CD0142E0660F61
:10427000771F881F991F4A95D1F708958F929F92B3
:10428000AF92BF92CF92DF92EF92FF926B017C01CF
:10429000D0DF4B015C01C114D104E104F104E9F069
:1042A000C8DFDC01CB0188199909AA09BB09883E3E
:1042B0009340A105B10578F321E0C21AD108E108C5
:1042C000F10888EE880E83E0981EA11CB11CC11471
:1042D000D104E104F10421F7DECFFF90EF90DF90ED
:1042E000CF90BF90AF909F908F9008952FB7F89484
:1042F0006091D8167091D9168091DA169091DB16DC
:104300002FBF08951F920F920FB60F9211242F9373
:104310003F938F939F93AF93BF938091D8169091C3
:10432000D916A091DA16B091DB163091D71623E09A
:10433000230F2D3720F40196A11DB11D05C026E8DD
:10434000230F0296A11DB11D2093D7168093D81676
:104350009093D916A093DA16B093DB168091DC16F1
:104360009091DD16A091DE16B091DF160196A11D89
:10437000B11D8093DC169093DD16A093DE16B093EA
:10438000DF16BF91AF919F918F913F912F910F9029
:104390000FBE0F901F901895789484B5826084BDED
:1043A00084B5816084BD85B5826085BD85B5816039
:1043B00085BD80916E00816080936E0010928100B7
:1043C0008091810082608093810080918100816072
:1043D0008093810080918000816080938000809133
:1043E000B10084608093B1008091B00081608093BF
:1043F000B000809191008260809391008091910043
:104400008160809391008091900081608093900002
:104410008091A10082608093A1008091A1008160C1
:104420008093A1008091A00081608093A000809182
:10443000210182608093210180912101816080931C
:1044400021018091200181608093200180917A0078
:10445000846080937A0080917A00826080937A00F1
:1044600080917A00816080937A0080917A008068E0
:1044700080937A001092C100E0913615F0913715C3
:1044800082E08083E0913215F09133151082E09143
:104490003415F091351580E1808310923E15E0913E
:1044A0003A15F0913B1586E08083E0913815F09144
:1044B0003915808180618083E0913815F09139153C
:1044C000808188608083E0913815F0913915808172
:1044D00080688083E0913815F091391580818F7D57
:1044E000808381E89BE090939A168093991689E6E1
:1044F0009EE090939C1680939B1687EF9EE090938E
:104500009E1680939D1680EA9EE09093D01680932D
:10451000CF168BE69BE09093A01680939F1680E1C8
:104520009BE09093A2168093A11686ED99E090935C
:10453000A4168093A31685EF98E09093AE1680930F
:10454000AD1681EE98E09093B4168093B31684EA8A
:1045500092E19093B2168093B11688E490E1909323
:10456000B6168093B5168FE490E19093B8168093B9
:10457000B71687E892E19093BC168093BB1683EB45
:104580009EE09093C2168093C11685E199E09093C6
:10459000C4168093C31684EF9AE09093C616809356
:1045A000C51682E299E09093C8168093C71687ECEF
:1045B00098E09093CA168093C9168FE193E1909387
:1045C000CC168093CB1681E599E09093CE1680931C
:1045D000CD1681E08093CB150E941F1399249394EC
:1045E0008091CA158111C0C0809194169091951642
:1045F000DC01ED91FC910084F185E02D1995892B6A
:1046000009F4B2C08091941690919516DC01ED9159
:10461000FC910084F185E02D1995803691050CF010
:104620009FC08091941690919516DC01ED91FC91BC
:104630000084F185E02D19957C01C0919416D091EC
:1046400095160CE2A02E06E1B02E650100E010E008
:10465000E016F10619F4C0E0D0E054C047DE6887E8
:1046600079878A879B87E881F9810284F385E02D29
:10467000CE01199597FF3BC339DE488459846A847B
:104680007B84DC01CB0184199509A609B7094C800C
:104690005D806E807F8084159505A605B70518F3AB
:1046A000DACFF50191915F0110928C163091981636
:1046B0002091C9159093C915931741F14091961611
:1046C0008091C515E82FF0E0ED53FA4E941323C006
:1046D000321709F11186882321F090928C161092DE
:1046E000C9151092C5151092901610928F1610923F
:1046F00092161092911690928D1680918C168130A0
:1047000099F02196CE15DF0564F26ACF9213D6CFC9
:104710001092C915D3CF91878F5F8093C515909163
:10472000C7158917F0F6E9CF17DB8093C4158E31D2
:1047300078F420918E16222359F0FC01FF27EE0F0A
:10474000FF1FE556F94E0190F081E02D309731F4CE
:10475000E0919916F0919A16309799F21995D1CF68
:1047600090E6E92EF12C69CF809161088111C9C2D0
:10477000BDDD00914608109147082091480830910E
:104780004908DC01CB01801B910BA20BB30B813AD2
:104790009B4BAD40B10508F0B0C280916008882302
:1047A00009F4A2C2C6EAD1E100E010E08091DC0386
:1047B00090E08017910731F0CE01EBD90F5F1F4FCA
:1047C0002C96F4CFCAE7DAE001EA1AE0212C312C6A
:1047D00080915F0890E08215930509F47CC18A817D
:1047E000882309F470C1CE0103960E945E0DCE01AC
:1047F0000C960E945E0DDE8421E0D2268D2D880F5E
:10480000DD80D226D82A60E0C8010E94C20CCD8883
:10481000DC1409F49EC07E0146E4E40EF11CD701CD
:104820006D917D918D919C910ED765307105A4F0AD
:10483000F701608171818281938105D760317105B3
:1048400074F4D7016D917D918D919C91FCD67B0183
:10485000B5E0EB1AF10806C0E12CF12C03C0BAE078
:10486000EB2EF12C8E8D9F8DA8A1B9A18A8C9B8CEB
:10487000AC8CBD8CBC01CD01681979098A099B09F2
:104880006E3171058105910544F02EE130E040E084
:1048900050E0AFD5CA01B90104C061E070E080E02A
:1048A00090E04701FF0CAA08BB08A501940100D7BE
:1048B0009B01AC01C501B401FBD69B01AC01C50154
:1048C000B401F6D628EE33E040E050E092D549013D
:1048D0005A01EFEF8E1A9E0AAE0ABE0A2C2D44E052
:1048E0002402F00111248D2D0D2C000C990BE82BC6
:1048F000F92BE05EFC4F6081062E000C770B689D63
:10490000A001699D500D789D500D11242E893F897D
:10491000420F531F5F8B4E8B5BE5529D9001539D61
:10492000300D11242658354FF901E80FF91F82A1E7
:10493000882371F061E0C8010E94C20C8E899F89B2
:104940000EA002C0959587950A94E2F7998F888FFB
:10495000DD8A888C998C092C000CAA08BB08F80108
:1049600085A196A1A7A1B0A588169906AA06BB069F
:1049700009F4A9C075016401C81AD90AEA0AFB0A38
:10498000F7FE05C044244A94542C320104C0412C43
:10499000512C32014394B701A601F7FE07C044270A
:1049A0005527BA014C195D096E097F09D801D296C5
:1049B0008D919C91D397A0E0B0E0481759076A0702
:1049C0007B0714F5B1E04B1651046104710471F4D6
:1049D000D8019996ED91FC919A97309739F093967A
:1049E0004D915C919497688180E021C0D8019D969B
:1049F000ED91FC919E97309751F193964D915C917A
:104A00009497698182E022C0B1E04B1651046104A1
:104A1000710479F4D8019B96ED91FC919C973097A5
:104A200041F093964D915C919497688181E019953E
:104A300034C0D8019F96ED91FC91D097309739F012
:104A400093964D915C919497698183E01995B1E0BB
:104A50004B1651046104710401F1472046204520A2
:104A6000409451F5CC0CDD1CEE1CFF1CD501C4019B
:104A70008C199D09AE09BF098038914CAF4FBF4FCB
:104A8000DCF48E899F89837099279F8B8E8B198E7A
:104A9000188E812C912C54010FC0CC0CDD1CEE1C07
:104AA000FF1CC80CD91CEA1CFB1CF1E8CF16FEE366
:104AB000DF06E104F1042CF7D80195968D929D92C2
:104AC000AD92BC929897BFEF2B1A3B0AC55ADF4FA5
:104AD000055A1F4F7DCE7AE4C72E78E0D72EE12C01
:104AE000F12C80915E0890E08E159F0509F450C06E
:104AF000F601C191D1916F018DA19EA1AFA1B8A581
:104B0000892B8A2B8B2BE1F194DB4B015C0189A56E
:104B10009AA5ABA5BCA5B501A401481B590B6A0B0E
:104B20007B0B8DA19EA1AFA1B8A5481759076A07B5
:104B30007B0730F1FE01EB5BFF4F20818D859E8569
:104B4000AF85B889222321F00196A11DB11D03C0B4
:104B50000197A109B1098D879E87AF87B88B4D85D5
:104B60005E856F8578898E010E5F1F4FC8010E9498
:104B7000FD1889A69AA6ABA6BCA6C8010E94551C22
:104B8000CE018A5B9F4F05D8FFEFEF1AFF0AA9CF2E
:104B9000CCE6D9E000E010E058E8E52EF12C68E51D
:104BA000C62E62E0D62E8091940390E08017910784
:104BB00009F49AC089899A89AB89BC894D855E853B
:104BC0006F85788984179507A607B70709F488C009
:104BD000481759076A077B0724F40197A109B1090F
:104BE00003C00196A11DB11D898B9A8BAB8BBC8B29
:104BF0007DDB6D8B7E8B8F8B988F89899A89803234
:104C000022E092070CF03BC097FD06C0853B910562
:104C10002CF084EB90E002C080E090E02B8547010F
:104C2000821A910827FD9394D401AA0FBB1FAA0FE3
:104C3000BB1F4D01BB0FAA08BB082C85A601421B58
:104C4000510927FD53959A01220F331F220F331F5D
:104C5000A901330F660B770B9A01AB0128193909AB
:104C60004A095B09DC01EBD324EB30E040E050E083
:104C7000C0D3DA01C901880D991DAA1DBB1D2A8563
:104C8000203370F53B85A701431B510937FD539530
:104C9000440F551F440F551F841795077CF03C8522
:104CA000B601631B710937FD7395660F771F660F99
:104CB000771FAC01681779070CF4AB01CA010297A2
:104CC000880F991F4FB7F89430E0F901EE0FFF1FDE
:104CD0002E0F3F1FF901E153F74F928381834FBF9E
:104CE0000F5F1F4F6B965FCF0E94691777CCF6015D
:104CF00081936F010F5F1F4FABCC81E08093610800
:104D000018C0F4DA0091460810914708209148082D
:104D100030914908DC01CB01801B910BA20BB30B36
:104D2000803A9B4BAD40B10508F037CD1092610839
:104D300080E00E94AB1031CD1F93CF93DF93109290
:104D400029151092281588EE93E0A0E0B0E080933A
:104D50002A1590932B15A0932C15B0932D152CE3A9
:104D600033E0309327152093261525EC30E030935F
:104D700033152093321524EC30E030933515209311
:104D8000341520EC30E0309337152093361521ECA4
:104D900030E0309339152093381522EC30E0309311
:104DA0003B1520933A1526EC30E030933D152093C7
:104DB0003C1510923F15109240151092411510921B
:104DC00042151092C4081092C3088093C5089093AE
:104DD000C608A093C708B093C8088AE593E09093EB
:104DE000C2088093C10884E690E09093CE08809337
:104DF000CD0810929A161092991686E295E190933A
:104E00009516809394161092CB158CE2809397168A
:104E10008BE3809396168FE28093981680E68093BA
:104E2000C6158FE58093C7151092C5151092901680
:104E300010928F16109292161092911681E0809324
:104E40008D16EBE9F6E11192119226E1E73DF207AA
:104E5000D1F71092CA15C6EDD4E111E0188319827A
:104E600061E081E00E945702698170E0888118D971
:104E7000229655E1C632D50789F7C6EAD1E14EE759
:104E800053E061E0CE010E94001E2C9684E1C63DF5
:104E9000D807A9F71092981110929C111092A011A6
:104EA0001092A411EAE7FAE086E991E147E422E3EF
:104EB00030E0DF011396ED01542F19925A95E9F76E
:104EC000AA5ABF4F2D933C931282E55AFF4F8E177B
:104ED0009F0779F780915F09ACE6B9E09FEF48EB57
:104EE0005BE0803388F41A968C931A97282F30E071
:104EF000F901EE0FFF1F2E0F3F1FF901E153F74F8E
:104F0000528341838F5F03C01A969C931A975B96D6
:104F1000CAE0AA37BC0729F780935F09109262099B
:104F200010926809DF91CF911F9108958F929F92FF
:104F3000AF92BF92CF92DF92EF92FF92CF93DF9327
:104F4000EC01688179818A819B81611571058105F8
:104F5000910521F464E279ED8BE597E02DE133EFE3
:104F600041E050E046D249015A019B01AC01A7EA59
:104F7000B1E45BD26B017C01ACEEB4EFA50194010E
:104F800060D2DC01CB018C0D9D1DAE1DBF1DB7FF96
:104F900003C00197A109B04888839983AA83BB8382
:104FA000BC01CD019F77DF91CF91FF90EF90DF9013
:104FB000CF90BF90AF909F908F9008958F929F92C7
:104FC000AF92BF92CF92DF92EF92FF9260914F0229
:104FD00070915002809151029091520261157105B9
:104FE0008105910521F464E279ED8BE597E02DE1EF
:104FF00033EF41E050E0FDD149015A019B01AC0182
:10500000A7EAB1E412D26B017C01ACEEB4EFA501CA
:10501000940117D2DC01CB018C0D9D1DAE1DBF1D6F
:10502000B7FF03C00197A109B04880934F02909346
:105030005002A0935102B0935202BC01CD019F7760
:10504000FF90EF90DF90CF90BF90AF909F908F90A8
:10505000089560934F027093500280935102909391
:1050600052020895FC0188279927E8942191203263
:10507000E9F3293010F02E30C8F32B3239F02D32FD
:1050800031F4689403C06DD0820F911D219120539B
:105090002A30C8F31EF4909581959F4F08951F9371
:1050A000FC0199278827BC01E89411911032E9F39B
:1050B000193010F01E30C8F31B3249F01D3241F494
:1050C000689405C039D0610F711D811D911D11912A
:1050D00010531A30B8F33EF4909580957095619511
:1050E0007F4F8F4F9F4F1F910895FA01A191B0817B
:1050F000009719F41097E1F0CD01DC01CD010D907E
:10510000002011F4C00113C0FB012191222319F0EA
:105110002015D9F7F3CFFB012191201519F41E9228
:10512000119606C02223C1F70D900020A1F7D001EF
:10513000FA01A193B0830895592F482F372F262FB6
:10514000660F771F881F991F660F771F881F991F8B
:10515000620F731F841F951F660F771F881F991F8B
:1051600008957AE0979F902D879F802D910D1124AF
:10517000089540D008F481E00895E89409C097FBB1
:105180003EF490958095709561957F4F8F4F9F4F1E
:105190009923A9F0F92F96E9BB279395F695879562
:1051A00077956795B795F111F8CFFAF4BB0F11F425
:1051B00060FF1BC06F5F7F4F8F4F9F4F16C08823CC
:1051C00011F096E911C0772321F09EE8872F762F02
:1051D00005C0662371F096E8862F70E060E02AF043
:1051E0009A95660F771F881FDAF7880F969587952F
:1051F00097F90895990F0008550FAA0BE0E8FEEF04
:1052000016161706E807F907C0F012161306E4078A
:10521000F50798F0621B730B840B950B39F40A2683
:1052200061F0232B242B252B21F408950A2609F461
:10523000A140A6958FEF811D811D08950BD078C0E8
:1052400069D028F06ED018F0952309F05AC05FC0DD
:105250001124A2C07ED0A0F3959FD1F3950F50E00A
:10526000551F629FF001729FBB27F00DB11D639F18
:10527000AA27F00DB11DAA1F649F6627B00DA11DBE
:10528000661F829F2227B00DA11D621F739FB00D64
:10529000A11D621F839FA00D611D221F749F3327D4
:1052A000A00D611D231F849F600D211D822F762F6D
:1052B0006A2F11249F5750408AF0E1F088234AF06A
:1052C000EE0FFF1FBB1F661F771F881F91505040B6
:1052D000A9F79E3F510570F014C05EC05F3FECF32C
:1052E000983EDCF3869577956795B795F795E795A2
:1052F0009F5FC1F7FE2B880F911D9695879597F9B3
:10530000089597F99F6780E870E060E008959FEF47
:1053100080EC089500240A9416161706180609064C
:10532000089500240A94121613061406050608951B
:10533000092E0394000C11F4882352F0BB0F40F4A3
:10534000BF2B11F460FF04C06F5F7F4F8F4F9F4FE3
:10535000089557FD9058440F551F59F05F3F71F065
:105360004795880F97FB991F61F09F3F79F08795CC
:105370000895121613061406551FF2CF4695F1DF55
:1053800008C0161617061806991FF1CF86957105E5
:10539000610508940895E894BB2766277727CB0119
:1053A00097F90895DC01CB01FC01F999FECF06C005
:1053B000F2BDE1BDF89A319600B40D9241505040D3
:1053C000B8F70895DC01CB0102C02D9105D0415002
:1053D0005040D8F70895262FF999FECF1FBA92BDF5
:1053E00081BD20BD0FB6F894FA9AF99A0FBE0196C6
:1053F0000895052E97FB16F400940FD057FD05D0A5
:1054000024D007FC02D046F408C050954095309552
:1054100021953F4F4F4F5F4F089590958095709520
:1054200061957F4F8F4F9F4F089531D0A59F900D6D
:10543000B49F900DA49F800D911D11240895B7FF76
:10544000F4CFF3DF821B930B0895A1E21A2EAA1B5F
:10545000BB1BFD010DC0AA1FBB1FEE1FFF1FA21724
:10546000B307E407F50720F0A21BB30BE40BF50B21
:10547000661F771F881F991F1A9469F760957095AA
:10548000809590959B01AC01BD01CF010895A29F2D
:10549000B001B39FC001A39F700D811D1124911D08
:1054A000B29F700D811D1124911D08955058BB2786
:1054B000AA270ED03DCF2EDF30F033DF20F031F4BD
:1054C0009F3F11F41EF423CF0EF4E095E7FB19CFB4
:1054D000E92F3FDF80F3BA17620773078407950748
:1054E00018F071F49EF557CF0EF4E0950B2EBA2FFD
:1054F000A02D0B01B90190010C01CA01A0011124DA
:10550000FF27591B99F0593F50F4503E68F11A1685
:10551000F040A22F232F342F4427585FF3CF469516
:1055200037952795A795F0405395C9F77EF41F1638
:10553000BA0B620B730B840BBAF09150A1F0FF0F02
:10554000BB1F661F771F881FC2F70EC0BA0F621FEE
:10555000731F841F48F4879577956795B795F795DE
:105560009E3F08F0B3CF9395880F08F09927EE0F70
:105570009795879508950CD0DBCED3DE40F0CADE38
:1055800030F021F45F3F19F0BCCE511105CFBFCEF2
:10559000E0DE98F39923C9F35523B1F3951B550B1E
:1055A000BB27AA2762177307840738F09F5F5F4FF6
:1055B000220F331F441FAA1FA9F333D00E2E3AF037
:1055C000E0E830D091505040E695001CCAF729D051
:1055D000FE2F27D0660F771F881FBB1F26173707A0
:1055E0004807AB07B0E809F0BB0B802DBF01FF27D0
:1055F00093585F4F2AF09E3F510568F082CECCCE83
:105600005F3FECF3983EDCF3869577956795B79509
:10561000F7959F5FC9F7880F911D9695879597F924
:105620000895E1E0660F771F881FBB1F621773079D
:105630008407BA0720F0621B730B840BBA0BEE1FB2
:1056400088F7E095089504D06894B111A5CE089527
:1056500088DE88F09F5790F0B92F9927B751A0F0B6
:10566000D1F0660F771F881F991F1AF0BA95C9F7F6
:1056700012C0B13081F08FDEB1E008958CCE672F7B
:10568000782F8827B85F39F0B93FCCF386957795A6
:105690006795B395D9F73EF490958095709561958F
:1056A0007F4F8F4F9F4F0895A5DD08F48FEF08952A
:1056B000DB018F939F93B9DEBF91AF91A29F800DC5
:1056C000911DA39F900DB29F900D11240895991BD9
:1056D00079E004C0991F961708F0961B881F7A95E9
:1056E000C9F780950895EE0FFF1F881F8BBF0790A5
:1056F000F691E02D19940F931F93CF93DF9382308F
:10570000910510F482E090E0E091E216F091E3164A
:1057100020E030E0A0E0B0E0309719F14081518105
:105720000281138148175907C8F08417950769F457
:10573000109731F012960C93129713961C9327C072
:105740000093E2161093E31622C02115310519F0DB
:105750004217530718F49A01BD01EF01DF01F80168
:10576000DBCF21153105F9F0281B390B2430310529
:1057700080F48A819B816115710521F0FB0193837F
:10578000828304C09093E3168093E216FE01329662
:1057900044C0FE01E20FF31F81939193225031091F
:1057A000398328833AC02091E0163091E116232BEB
:1057B00041F420915502309156023093E116209326
:1057C000E01620915302309154022115310541F425
:1057D0002DB73EB74091570250915802241B350B0C
:1057E000E091E016F091E116E217F307A0F42E1B0A
:1057F0003F0B2817390778F0AC014E5F5F4F241735
:10580000350748F04E0F5F1F5093E1164093E016A6
:105810008193919302C0E0E0F0E0CF01DF91CF915E
:105820001F910F910895CF93DF93009709F481C0E2
:10583000FC01329713821282A091E216B091E31616
:10584000109781F420813181820F931F2091E016FF
:105850003091E1162817390751F5F093E116E093DE
:10586000E01667C0ED0120E030E0CE17DF0740F41E
:105870004A815B819E0141155105F1F0EA01F5CFA6
:10588000D383C28340815181840F951FC817D907E4
:1058900059F488819981840F951F029691838083A2
:1058A0008A819B81938382832115310529F4F093AA
:1058B000E316E093E2163DC0E901FB83EA834991D8
:1058C0005991C40FD51FEC17FD0761F480819181B8
:1058D000840F951F0296E9019983888382819381C1
:1058E0009B838A83E0E0F0E012968D919C91139760
:1058F000009719F0FD01DC01F7CF8D919C91119774
:105900009D012E5F3F4F820F931F2091E016309133
:10591000E1162817390769F4309729F41092E31635
:105920001092E21602C013821282B093E116A09385
:10593000E016DF91CF9108956F927F928F929F92A0
:10594000AF92BF92CF92DF92EF92FF920F931F938D
:10595000CF93DF93009781F4CB01DF91CF911F911B
:105960000F91FF90EF90DF90CF90BF90AF909F90FE
:105970008F907F906F90BFCEFC01E60FF71F9C01C8
:1059800022503109E217F30708F4A5C0EC01D90150
:105990000D911C91119706171707A8F005301105F6
:1059A00008F497C0C80104978617970708F491C0B8
:1059B00002501109061B170B019311936D937C93F1
:1059C000CF0131DF86C05B01A01AB10A4C01800E05
:1059D000911EA091E216B091E316612C712CE12C7E
:1059E000F12C109709F446C08D919C911197A81540
:1059F000B905B1F56C0142E0C40ED11CCA14DB0438
:105A000078F14C018A189B08640142E0C40ED11C55
:105A10001296BC9012971396AC91B5E0CB16D104B8
:105A200040F0B282A38391828082D9016D937C93EE
:105A300009C00E5F1F4F800F911FF9019183808372
:105A4000EB2DFA2FE114F10431F0D7011396FC93FA
:105A5000EE9312973EC0F093E316E093E21639C03E
:105A60006816790608F43C017D0112960D90BC91F0
:105A7000A02DB7CF8091E0169091E1168816990677
:105A8000E1F466167706C8F48091530290915402AF
:105A9000009741F48DB79EB740915702509158023C
:105AA000841B950BE817F907B0F4F093E116E09327
:105AB000E016F901718360830CC0CB011CDE7C0110
:105AC000009749F0A801BE011BD0CE01ACDEC70192
:105AD00004C0CE0102C080E090E0DF91CF911F9121
:105AE0000F91FF90EF90DF90CF90BF90AF909F907D
:105AF0008F907F906F90089581E090E0F894FAC2C3
:105B0000FB01DC0102C001900D9241505040D8F7DA
:105B10000895FB01DC0101900D920020E1F708954A
:105B2000FB01DC014150504048F001900D920020F3
:105B3000C9F701C01D9241505040E0F708950F93FE
:105B40001F93CF93DF93CDB7DEB72E970FB6F894A0
:105B5000DEBF0FBECDBF0E891F8986E08C831A83FE
:105B600009838FEF9FE79E838D83AE01465E5F4F73
:105B7000688D798DCE01019610D0EF81F885E00F08
:105B8000F11F10822E960FB6F894DEBF0FBECDBF68
:105B9000DF91CF911F910F9108952F923F924F92D5
:105BA0005F926F927F928F929F92AF92BF92CF92AD
:105BB000DF92EF92FF920F931F93CF93DF93CDB7B6
:105BC000DEB72B970FB6F894DEBF0FBECDBF6C01CA
:105BD0007B018A01FC0117821682838181FFBFC18C
:105BE000CE0101963C01F6019381F70193FD859169
:105BF00093FF81917F01882309F4ADC1853239F487
:105C000093FD859193FF81917F01853221F4B60147
:105C100090E0D6D1E8CF912C212C312CFFE1F31567
:105C2000D8F08B3279F038F4803279F08332A1F4F5
:105C3000232D20611DC08D3261F0803369F4232D46
:105C4000216016C0832D8260382EE32DE4603E2E45
:105C50002AC0F32DF8601DC037FC2DC020ED280FA1
:105C60002A3040F08E32B9F436FC75C1232D206401
:105C7000322E19C036FE06C08AE0989E200D1124EF
:105C8000922E11C0EAE02E9E200D1124222EF32D1B
:105C9000F0623F2E08C08C3621F4832D8068382EA8
:105CA00002C0883641F4F70193FD859193FF8191FD
:105CB0007F018111B3CF982F9F7D9554933028F4A5
:105CC0000C5F1F4F9FE399830DC0833631F08337FC
:105CD00071F0833509F055C020C0F80180818983B7
:105CE0000E5F1F4F88248394912C530112C028010A
:105CF000F2E04F0E511CF801A080B18036FE03C0C7
:105D0000692D70E002C06FEF7FEFC5014ED14C01ED
:105D10008201F32DFF773F2E15C0280122E0420EAD
:105D2000511CF801A080B18036FE03C0692D70E0DF
:105D300002C06FEF7FEFC5012DD14C01F32DF0684C
:105D40003F2E820133FC19C0822D90E088169906FF
:105D5000A0F4B60180E290E033D12A94F5CFF501AA
:105D600037FC859137FE81915F01B60190E028D123
:105D700021102A9421E0821A91088114910479F764
:105D8000E1C0843611F0893639F5F80137FE07C0D5
:105D900060817181828193810C5F1F4F08C0608197
:105DA0007181072E000C880B990B0E5F1F4FF32D8E
:105DB000FF763F2E97FF09C090958095709561956D
:105DC0007F4F8F4F9F4FF0683F2E2AE030E0A301B6
:105DD00033D1882E861844C0853731F4232D2F7E89
:105DE000B22E2AE030E025C0932D997FB92E8F3650
:105DF000C1F018F4883579F0AEC0803719F08837D3
:105E000021F0A9C0E92FE061BE2EB4FE0DC0FB2D2C
:105E1000F460BF2E09C034FE0AC0292F2660B22EBE
:105E200006C028E030E005C020E130E002C020E1FB
:105E300032E0F801B7FE07C06081718182819381F1
:105E40000C5F1F4F06C06081718180E090E00E5FA3
:105E50001F4FA301F1D0882E8618FB2DFF773F2E10
:105E600036FE0DC0232D2E7FA22E891458F434FE49
:105E70000BC032FC09C0832D8E7EA82E05C0B82C25
:105E8000A32C03C0B82C01C0B92CA4FE0FC0FE0186
:105E9000E80DF11D8081803321F49A2D997EA92E81
:105EA00009C0A2FE06C0B394B39404C08A2D8678BC
:105EB00009F0B394A3FC10C0A0FE06C0B21480F495
:105EC000280C922C9B180DC0B21458F4B60180E235
:105ED00090E076D0B394F8CFB21418F42B1802C027
:105EE000982C212CA4FE0FC0B60180E390E068D06E
:105EF000A2FE16C0A1FC03C088E790E002C088E5BE
:105F000090E0B6010CC08A2D867851F0A1FE02C047
:105F10008BE201C080E2A7FC8DE2B60190E050D098
:105F2000891430F4B60180E390E04AD09A94F8CF17
:105F30008A94F301E80DF11D8081B60190E040D014
:105F40008110F6CF222009F44ECEB60180E290E017
:105F500037D02A94F7CFF6018681978102C08FEF60
:105F60009FEF2B960FB6F894DEBF0FBECDBFDF912B
:105F7000CF911F910F91FF90EF90DF90CF90BF9046
:105F8000AF909F908F907F906F905F904F903F90D9
:105F90002F900895FC010590615070400110D8F7D2
:105FA000809590958E0F9F1F0895FC016150704061
:105FB00001900110D8F7809590958E0F9F1F08953E
:105FC0000F931F93CF93DF93FB01238121FD03C028
:105FD0008FEF9FEF2CC022FF16C04681578124818E
:105FE00035814217530744F4A081B1819D012F5F91
:105FF0003F4F318320838C93268137812F5F3F4F22
:106000003783268314C08B01EC01FB010084F185EA
:10601000E02D1995892BE1F6D80116968D919C916A
:106020001797019617969C938E931697CE01DF9142
:10603000CF911F910F910895FA01AA27283051F1AD
:10604000203181F1E8946F936E7F6E5F7F4F8F4FA9
:106050009F4FAF4FB1E03ED0B4E03CD0670F781F08
:10606000891F9A1FA11D680F791F8A1F911DA11DED
:106070006A0F711D811D911DA11D20D009F4689426
:106080003F912AE0269F11243019305D3193DEF6CE
:10609000CF010895462F4770405D4193B3E00FD084
:1060A000C9F7F6CF462F4F70405D4A3318F0495D6F
:1060B00031FD4052419302D0A9F7EACFB4E0A69552
:1060C0009795879577956795BA95C9F70097610574
:1060D000710508959B01AC010A2E069457954795CA
:1060E00037952795BA95C9F7620F731F841F951FBF
:0860F000A01D0895F894FFCFF4
:1060F8004D6F6269466C69676874204D6567610019
:106108000000000031323334353637383930004D2D
:106118006F6269466C69676874204D656761000045
:106128000000000000000000000000000000000067
:106138000000000000000000000000000000000156
:106148000000000000E4168000000000009C1BBE58
:1061580015C408C308312E392E390000007E306D71
:1061680079335B5F707F7B771F0D3D4F47000000E1
:106178000000000000000000000000000000000017
:10618800000000000000000000800180257E306DC6
:1061980079335B5F707F7B00000009000000777F28
:1061A8004E7E4F475F37307C000E00767E677E77E5
:1061B8005B463E000000336D4E13780008007D1FDB
:1061C8000D3D4F477B373038000600151D677305B6
:1061D8005B0F1C000000276D4E00780000000000D7
:1061E800010201000000020100000101000101009C
:1061F80001010101010000000000AC1A781A401AE0
:10620800FD18E718A518841850182F18D917A117C2
:1062180000FF0100010000FFFF0000010001FF0076
:10622800000040001400540000000000F315BE15E3
:106238002C17EC1A5D173B174F1700000000E815E4
:10624800BE15C408C3080000000095086908C40802
:106258003D0861084D083E082E003A002000534EC4
:106268002D253033782D00253033780030004275E5
:0862780074746F6E000D0A0042
:00000001FF
